{
  "_format": "hh-sol-artifact-1",
  "contractName": "DChainstackDollars",
  "sourceName": "contracts/DestinationToken.sol",
  "abi": [
    {
      "inputs": [
        {
          "internalType": "address",
          "name": "_bridge",
          "type": "address"
        }
      ],
      "stateMutability": "nonpayable",
      "type": "constructor"
    },
    {
      "anonymous": false,
      "inputs": [
        {
          "indexed": true,
          "internalType": "address",
          "name": "owner",
          "type": "address"
        },
        {
          "indexed": true,
          "internalType": "address",
          "name": "spender",
          "type": "address"
        },
        {
          "indexed": false,
          "internalType": "uint256",
          "name": "value",
          "type": "uint256"
        }
      ],
      "name": "Approval",
      "type": "event"
    },
    {
      "anonymous": false,
      "inputs": [
        {
          "indexed": false,
          "internalType": "address",
          "name": "from",
          "type": "address"
        },
        {
          "indexed": false,
          "internalType": "uint256",
          "name": "amount",
          "type": "uint256"
        }
      ],
      "name": "TokensMinted",
      "type": "event"
    },
    {
      "anonymous": false,
      "inputs": [
        {
          "indexed": true,
          "internalType": "address",
          "name": "from",
          "type": "address"
        },
        {
          "indexed": true,
          "internalType": "address",
          "name": "to",
          "type": "address"
        },
        {
          "indexed": false,
          "internalType": "uint256",
          "name": "value",
          "type": "uint256"
        }
      ],
      "name": "Transfer",
      "type": "event"
    },
    {
      "inputs": [
        {
          "internalType": "address",
          "name": "owner",
          "type": "address"
        },
        {
          "internalType": "address",
          "name": "spender",
          "type": "address"
        }
      ],
      "name": "allowance",
      "outputs": [
        {
          "internalType": "uint256",
          "name": "",
          "type": "uint256"
        }
      ],
      "stateMutability": "view",
      "type": "function"
    },
    {
      "inputs": [
        {
          "internalType": "address",
          "name": "spender",
          "type": "address"
        },
        {
          "internalType": "uint256",
          "name": "amount",
          "type": "uint256"
        }
      ],
      "name": "approve",
      "outputs": [
        {
          "internalType": "bool",
          "name": "",
          "type": "bool"
        }
      ],
      "stateMutability": "nonpayable",
      "type": "function"
    },
    {
      "inputs": [
        {
          "internalType": "address",
          "name": "account",
          "type": "address"
        }
      ],
      "name": "balanceOf",
      "outputs": [
        {
          "internalType": "uint256",
          "name": "",
          "type": "uint256"
        }
      ],
      "stateMutability": "view",
      "type": "function"
    },
    {
      "inputs": [
        {
          "internalType": "uint256",
          "name": "amount",
          "type": "uint256"
        }
      ],
      "name": "burn",
      "outputs": [],
      "stateMutability": "nonpayable",
      "type": "function"
    },
    {
      "inputs": [
        {
          "internalType": "address",
          "name": "_account",
          "type": "address"
        },
        {
          "internalType": "uint256",
          "name": "_amount",
          "type": "uint256"
        }
      ],
      "name": "burnFrom",
      "outputs": [],
      "stateMutability": "nonpayable",
      "type": "function"
    },
    {
      "inputs": [],
      "name": "decimals",
      "outputs": [
        {
          "internalType": "uint8",
          "name": "",
          "type": "uint8"
        }
      ],
      "stateMutability": "view",
      "type": "function"
    },
    {
      "inputs": [
        {
          "internalType": "address",
          "name": "spender",
          "type": "address"
        },
        {
          "internalType": "uint256",
          "name": "subtractedValue",
          "type": "uint256"
        }
      ],
      "name": "decreaseAllowance",
      "outputs": [
        {
          "internalType": "bool",
          "name": "",
          "type": "bool"
        }
      ],
      "stateMutability": "nonpayable",
      "type": "function"
    },
    {
      "inputs": [
        {
          "internalType": "address",
          "name": "spender",
          "type": "address"
        },
        {
          "internalType": "uint256",
          "name": "addedValue",
          "type": "uint256"
        }
      ],
      "name": "increaseAllowance",
      "outputs": [
        {
          "internalType": "bool",
          "name": "",
          "type": "bool"
        }
      ],
      "stateMutability": "nonpayable",
      "type": "function"
    },
    {
      "inputs": [
        {
          "internalType": "address",
          "name": "_recipient",
          "type": "address"
        },
        {
          "internalType": "uint256",
          "name": "_amount",
          "type": "uint256"
        }
      ],
      "name": "mint",
      "outputs": [],
      "stateMutability": "nonpayable",
      "type": "function"
    },
    {
      "inputs": [],
      "name": "name",
      "outputs": [
        {
          "internalType": "string",
          "name": "",
          "type": "string"
        }
      ],
      "stateMutability": "view",
      "type": "function"
    },
    {
      "inputs": [],
      "name": "symbol",
      "outputs": [
        {
          "internalType": "string",
          "name": "",
          "type": "string"
        }
      ],
      "stateMutability": "view",
      "type": "function"
    },
    {
      "inputs": [],
      "name": "totalSupply",
      "outputs": [
        {
          "internalType": "uint256",
          "name": "",
          "type": "uint256"
        }
      ],
      "stateMutability": "view",
      "type": "function"
    },
    {
      "inputs": [
        {
          "internalType": "address",
          "name": "to",
          "type": "address"
        },
        {
          "internalType": "uint256",
          "name": "amount",
          "type": "uint256"
        }
      ],
      "name": "transfer",
      "outputs": [
        {
          "internalType": "bool",
          "name": "",
          "type": "bool"
        }
      ],
      "stateMutability": "nonpayable",
      "type": "function"
    },
    {
      "inputs": [
        {
          "internalType": "address",
          "name": "from",
          "type": "address"
        },
        {
          "internalType": "address",
          "name": "to",
          "type": "address"
        },
        {
          "internalType": "uint256",
          "name": "amount",
          "type": "uint256"
        }
      ],
      "name": "transferFrom",
      "outputs": [
        {
          "internalType": "bool",
          "name": "",
          "type": "bool"
        }
      ],
      "stateMutability": "nonpayable",
      "type": "function"
    }
  ],
  "bytecode": "0x60806040523480156200001157600080fd5b50604051620021b1380380620021b1833981810160405281019062000037919062000301565b6040518060400160405280601281526020017f44436861696e737461636b446f6c6c61727300000000000000000000000000008152506040518060400160405280600681526020017f442d4348534400000000000000000000000000000000000000000000000000008152508160039080519060200190620000bb9291906200023a565b508060049080519060200190620000d49291906200023a565b50505080600560006101000a81548173ffffffffffffffffffffffffffffffffffffffff021916908373ffffffffffffffffffffffffffffffffffffffff160217905550620001646040518060400160405280601881526020017f42726964676520616464726573732073657420746f2025730000000000000000815250826200016b60201b620009211760201c565b50620004c9565b6200020d8282604051602401620001849291906200037f565b6040516020818303038152906040527f319af333000000000000000000000000000000000000000000000000000000007bffffffffffffffffffffffffffffffffffffffffffffffffffffffff19166020820180517bffffffffffffffffffffffffffffffffffffffffffffffffffffffff83818316178352505050506200021160201b60201c565b5050565b60008151905060006a636f6e736f6c652e6c6f679050602083016000808483855afa5050505050565b828054620002489062000439565b90600052602060002090601f0160209004810192826200026c5760008555620002b8565b82601f106200028757805160ff1916838001178555620002b8565b82800160010185558215620002b8579182015b82811115620002b75782518255916020019190600101906200029a565b5b509050620002c79190620002cb565b5090565b5b80821115620002e6576000816000905550600101620002cc565b5090565b600081519050620002fb81620004af565b92915050565b6000602082840312156200031457600080fd5b60006200032484828501620002ea565b91505092915050565b6200033881620003cf565b82525050565b60006200034b82620003b3565b620003578185620003be565b93506200036981856020860162000403565b62000374816200049e565b840191505092915050565b600060408201905081810360008301526200039b81856200033e565b9050620003ac60208301846200032d565b9392505050565b600081519050919050565b600082825260208201905092915050565b6000620003dc82620003e3565b9050919050565b600073ffffffffffffffffffffffffffffffffffffffff82169050919050565b60005b838110156200042357808201518184015260208101905062000406565b8381111562000433576000848401525b50505050565b600060028204905060018216806200045257607f821691505b602082108114156200046957620004686200046f565b5b50919050565b7f4e487b7100000000000000000000000000000000000000000000000000000000600052602260045260246000fd5b6000601f19601f8301169050919050565b620004ba81620003cf565b8114620004c657600080fd5b50565b611cd880620004d96000396000f3fe608060405234801561001057600080fd5b50600436106100ea5760003560e01c806342966c681161008c57806395d89b411161006657806395d89b411461025d578063a457c2d71461027b578063a9059cbb146102ab578063dd62ed3e146102db576100ea565b806342966c68146101f557806370a082311461021157806379cc679014610241576100ea565b806323b872dd116100c857806323b872dd1461015b578063313ce5671461018b57806339509351146101a957806340c10f19146101d9576100ea565b806306fdde03146100ef578063095ea7b31461010d57806318160ddd1461013d575b600080fd5b6100f761030b565b60405161010491906115a4565b60405180910390f35b61012760048036038101906101229190611305565b61039d565b6040516101349190611589565b60405180910390f35b6101456103c0565b6040516101529190611756565b60405180910390f35b610175600480360381019061017091906112b6565b6103ca565b6040516101829190611589565b60405180910390f35b6101936103f9565b6040516101a09190611771565b60405180910390f35b6101c360048036038101906101be9190611305565b610402565b6040516101d09190611589565b60405180910390f35b6101f360048036038101906101ee9190611305565b6104ac565b005b61020f600480360381019061020a9190611341565b6105c2565b005b61022b60048036038101906102269190611251565b6105d6565b6040516102389190611756565b60405180910390f35b61025b60048036038101906102569190611305565b61061e565b005b6102656106fb565b60405161027291906115a4565b60405180910390f35b61029560048036038101906102909190611305565b61078d565b6040516102a29190611589565b60405180910390f35b6102c560048036038101906102c09190611305565b610877565b6040516102d29190611589565b60405180910390f35b6102f560048036038101906102f0919061127a565b61089a565b6040516103029190611756565b60405180910390f35b60606003805461031a906118ba565b80601f0160208091040260200160405190810160405280929190818152602001828054610346906118ba565b80156103935780601f1061036857610100808354040283529160200191610393565b820191906000526020600020905b81548152906001019060200180831161037657829003601f168201915b5050505050905090565b6000806103a86109bd565b90506103b58185856109c5565b600191505092915050565b6000600254905090565b6000806103d56109bd565b90506103e2858285610b90565b6103ed858585610c1c565b60019150509392505050565b60006012905090565b60008061040d6109bd565b90506104a1818585600160008673ffffffffffffffffffffffffffffffffffffffff1673ffffffffffffffffffffffffffffffffffffffff16815260200190815260200160002060008973ffffffffffffffffffffffffffffffffffffffff1673ffffffffffffffffffffffffffffffffffffffff1681526020019081526020016000205461049c91906117a8565b6109c5565b600191505092915050565b3373ffffffffffffffffffffffffffffffffffffffff16600560009054906101000a900473ffffffffffffffffffffffffffffffffffffffff1673ffffffffffffffffffffffffffffffffffffffff161461053c576040517f08c379a0000000000000000000000000000000000000000000000000000000008152600401610533906116f6565b60405180910390fd5b7f3f2c9d57c068687834f0de942a9babb9e5acab57d516d3480a3c16ee165a4273828260405161056d929190611560565b60405180910390a161057f8282610e9d565b6105be6040518060400160405280601481526020017f546f6b656e73206d696e74656420666f7220257300000000000000000000000081525083610921565b5050565b6105d36105cd6109bd565b82610ffd565b50565b60008060008373ffffffffffffffffffffffffffffffffffffffff1673ffffffffffffffffffffffffffffffffffffffff168152602001908152602001600020549050919050565b3373ffffffffffffffffffffffffffffffffffffffff16600560009054906101000a900473ffffffffffffffffffffffffffffffffffffffff1673ffffffffffffffffffffffffffffffffffffffff16146106ae576040517f08c379a00000000000000000000000000000000000000000000000000000000081526004016106a5906116f6565b60405180910390fd5b6106b882826111d4565b6106f76040518060400160405280601581526020017f546f6b656e73206275726e65642066726f6d202573000000000000000000000081525083610921565b5050565b60606004805461070a906118ba565b80601f0160208091040260200160405190810160405280929190818152602001828054610736906118ba565b80156107835780601f1061075857610100808354040283529160200191610783565b820191906000526020600020905b81548152906001019060200180831161076657829003601f168201915b5050505050905090565b6000806107986109bd565b90506000600160008373ffffffffffffffffffffffffffffffffffffffff1673ffffffffffffffffffffffffffffffffffffffff16815260200190815260200160002060008673ffffffffffffffffffffffffffffffffffffffff1673ffffffffffffffffffffffffffffffffffffffff1681526020019081526020016000205490508381101561085e576040517f08c379a000000000000000000000000000000000000000000000000000000000815260040161085590611716565b60405180910390fd5b61086b82868684036109c5565b60019250505092915050565b6000806108826109bd565b905061088f818585610c1c565b600191505092915050565b6000600160008473ffffffffffffffffffffffffffffffffffffffff1673ffffffffffffffffffffffffffffffffffffffff16815260200190815260200160002060008373ffffffffffffffffffffffffffffffffffffffff1673ffffffffffffffffffffffffffffffffffffffff16815260200190815260200160002054905092915050565b6109b982826040516024016109379291906115c6565b6040516020818303038152906040527f319af333000000000000000000000000000000000000000000000000000000007bffffffffffffffffffffffffffffffffffffffffffffffffffffffff19166020820180517bffffffffffffffffffffffffffffffffffffffffffffffffffffffff83818316178352505050506111f4565b5050565b600033905090565b600073ffffffffffffffffffffffffffffffffffffffff168373ffffffffffffffffffffffffffffffffffffffff161415610a35576040517f08c379a0000000000000000000000000000000000000000000000000000000008152600401610a2c906116d6565b60405180910390fd5b600073ffffffffffffffffffffffffffffffffffffffff168273ffffffffffffffffffffffffffffffffffffffff161415610aa5576040517f08c379a0000000000000000000000000000000000000000000000000000000008152600401610a9c90611636565b60405180910390fd5b80600160008573ffffffffffffffffffffffffffffffffffffffff1673ffffffffffffffffffffffffffffffffffffffff16815260200190815260200160002060008473ffffffffffffffffffffffffffffffffffffffff1673ffffffffffffffffffffffffffffffffffffffff168152602001908152602001600020819055508173ffffffffffffffffffffffffffffffffffffffff168373ffffffffffffffffffffffffffffffffffffffff167f8c5be1e5ebec7d5bd14f71427d1e84f3dd0314c0f7b2291e5b200ac8c7c3b92583604051610b839190611756565b60405180910390a3505050565b6000610b9c848461089a565b90507fffffffffffffffffffffffffffffffffffffffffffffffffffffffffffffffff8114610c165781811015610c08576040517f08c379a0000000000000000000000000000000000000000000000000000000008152600401610bff90611656565b60405180910390fd5b610c1584848484036109c5565b5b50505050565b600073ffffffffffffffffffffffffffffffffffffffff168373ffffffffffffffffffffffffffffffffffffffff161415610c8c576040517f08c379a0000000000000000000000000000000000000000000000000000000008152600401610c83906116b6565b60405180910390fd5b600073ffffffffffffffffffffffffffffffffffffffff168273ffffffffffffffffffffffffffffffffffffffff161415610cfc576040517f08c379a0000000000000000000000000000000000000000000000000000000008152600401610cf3906115f6565b60405180910390fd5b610d0783838361121d565b60008060008573ffffffffffffffffffffffffffffffffffffffff1673ffffffffffffffffffffffffffffffffffffffff16815260200190815260200160002054905081811015610d8d576040517f08c379a0000000000000000000000000000000000000000000000000000000008152600401610d8490611676565b60405180910390fd5b8181036000808673ffffffffffffffffffffffffffffffffffffffff1673ffffffffffffffffffffffffffffffffffffffff16815260200190815260200160002081905550816000808573ffffffffffffffffffffffffffffffffffffffff1673ffffffffffffffffffffffffffffffffffffffff1681526020019081526020016000206000828254610e2091906117a8565b925050819055508273ffffffffffffffffffffffffffffffffffffffff168473ffffffffffffffffffffffffffffffffffffffff167fddf252ad1be2c89b69c2b068fc378daa952ba7f163c4a11628f55a4df523b3ef84604051610e849190611756565b60405180910390a3610e97848484611222565b50505050565b600073ffffffffffffffffffffffffffffffffffffffff168273ffffffffffffffffffffffffffffffffffffffff161415610f0d576040517f08c379a0000000000000000000000000000000000000000000000000000000008152600401610f0490611736565b60405180910390fd5b610f196000838361121d565b8060026000828254610f2b91906117a8565b92505081905550806000808473ffffffffffffffffffffffffffffffffffffffff1673ffffffffffffffffffffffffffffffffffffffff1681526020019081526020016000206000828254610f8091906117a8565b925050819055508173ffffffffffffffffffffffffffffffffffffffff16600073ffffffffffffffffffffffffffffffffffffffff167fddf252ad1be2c89b69c2b068fc378daa952ba7f163c4a11628f55a4df523b3ef83604051610fe59190611756565b60405180910390a3610ff960008383611222565b5050565b600073ffffffffffffffffffffffffffffffffffffffff168273ffffffffffffffffffffffffffffffffffffffff16141561106d576040517f08c379a000000000000000000000000000000000000000000000000000000000815260040161106490611696565b60405180910390fd5b6110798260008361121d565b60008060008473ffffffffffffffffffffffffffffffffffffffff1673ffffffffffffffffffffffffffffffffffffffff168152602001908152602001600020549050818110156110ff576040517f08c379a00000000000000000000000000000000000000000000000000000000081526004016110f690611616565b60405180910390fd5b8181036000808573ffffffffffffffffffffffffffffffffffffffff1673ffffffffffffffffffffffffffffffffffffffff16815260200190815260200160002081905550816002600082825461115691906117fe565b92505081905550600073ffffffffffffffffffffffffffffffffffffffff168373ffffffffffffffffffffffffffffffffffffffff167fddf252ad1be2c89b69c2b068fc378daa952ba7f163c4a11628f55a4df523b3ef846040516111bb9190611756565b60405180910390a36111cf83600084611222565b505050565b6111e6826111e06109bd565b83610b90565b6111f08282610ffd565b5050565b60008151905060006a636f6e736f6c652e6c6f679050602083016000808483855afa5050505050565b505050565b505050565b60008135905061123681611c74565b92915050565b60008135905061124b81611c8b565b92915050565b60006020828403121561126357600080fd5b600061127184828501611227565b91505092915050565b6000806040838503121561128d57600080fd5b600061129b85828601611227565b92505060206112ac85828601611227565b9150509250929050565b6000806000606084860312156112cb57600080fd5b60006112d986828701611227565b93505060206112ea86828701611227565b92505060406112fb8682870161123c565b9150509250925092565b6000806040838503121561131857600080fd5b600061132685828601611227565b92505060206113378582860161123c565b9150509250929050565b60006020828403121561135357600080fd5b60006113618482850161123c565b91505092915050565b61137381611832565b82525050565b61138281611844565b82525050565b60006113938261178c565b61139d8185611797565b93506113ad818560208601611887565b6113b68161194a565b840191505092915050565b60006113ce602383611797565b91506113d98261195b565b604082019050919050565b60006113f1602283611797565b91506113fc826119aa565b604082019050919050565b6000611414602283611797565b915061141f826119f9565b604082019050919050565b6000611437601d83611797565b915061144282611a48565b602082019050919050565b600061145a602683611797565b915061146582611a71565b604082019050919050565b600061147d602183611797565b915061148882611ac0565b604082019050919050565b60006114a0602583611797565b91506114ab82611b0f565b604082019050919050565b60006114c3602483611797565b91506114ce82611b5e565b604082019050919050565b60006114e6603c83611797565b91506114f182611bad565b604082019050919050565b6000611509602583611797565b915061151482611bfc565b604082019050919050565b600061152c601f83611797565b915061153782611c4b565b602082019050919050565b61154b81611870565b82525050565b61155a8161187a565b82525050565b6000604082019050611575600083018561136a565b6115826020830184611542565b9392505050565b600060208201905061159e6000830184611379565b92915050565b600060208201905081810360008301526115be8184611388565b905092915050565b600060408201905081810360008301526115e08185611388565b90506115ef602083018461136a565b9392505050565b6000602082019050818103600083015261160f816113c1565b9050919050565b6000602082019050818103600083015261162f816113e4565b9050919050565b6000602082019050818103600083015261164f81611407565b9050919050565b6000602082019050818103600083015261166f8161142a565b9050919050565b6000602082019050818103600083015261168f8161144d565b9050919050565b600060208201905081810360008301526116af81611470565b9050919050565b600060208201905081810360008301526116cf81611493565b9050919050565b600060208201905081810360008301526116ef816114b6565b9050919050565b6000602082019050818103600083015261170f816114d9565b9050919050565b6000602082019050818103600083015261172f816114fc565b9050919050565b6000602082019050818103600083015261174f8161151f565b9050919050565b600060208201905061176b6000830184611542565b92915050565b60006020820190506117866000830184611551565b92915050565b600081519050919050565b600082825260208201905092915050565b60006117b382611870565b91506117be83611870565b9250827fffffffffffffffffffffffffffffffffffffffffffffffffffffffffffffffff038211156117f3576117f26118ec565b5b828201905092915050565b600061180982611870565b915061181483611870565b925082821015611827576118266118ec565b5b828203905092915050565b600061183d82611850565b9050919050565b60008115159050919050565b600073ffffffffffffffffffffffffffffffffffffffff82169050919050565b6000819050919050565b600060ff82169050919050565b60005b838110156118a557808201518184015260208101905061188a565b838111156118b4576000848401525b50505050565b600060028204905060018216806118d257607f821691505b602082108114156118e6576118e561191b565b5b50919050565b7f4e487b7100000000000000000000000000000000000000000000000000000000600052601160045260246000fd5b7f4e487b7100000000000000000000000000000000000000000000000000000000600052602260045260246000fd5b6000601f19601f8301169050919050565b7f45524332303a207472616e7366657220746f20746865207a65726f206164647260008201527f6573730000000000000000000000000000000000000000000000000000000000602082015250565b7f45524332303a206275726e20616d6f756e7420657863656564732062616c616e60008201527f6365000000000000000000000000000000000000000000000000000000000000602082015250565b7f45524332303a20617070726f766520746f20746865207a65726f20616464726560008201527f7373000000000000000000000000000000000000000000000000000000000000602082015250565b7f45524332303a20696e73756666696369656e7420616c6c6f77616e6365000000600082015250565b7f45524332303a207472616e7366657220616d6f756e742065786365656473206260008201527f616c616e63650000000000000000000000000000000000000000000000000000602082015250565b7f45524332303a206275726e2066726f6d20746865207a65726f2061646472657360008201527f7300000000000000000000000000000000000000000000000000000000000000602082015250565b7f45524332303a207472616e736665722066726f6d20746865207a65726f20616460008201527f6472657373000000000000000000000000000000000000000000000000000000602082015250565b7f45524332303a20617070726f76652066726f6d20746865207a65726f2061646460008201527f7265737300000000000000000000000000000000000000000000000000000000602082015250565b7f44436861696e737461636b446f6c6c6172733a206f6e6c79207468652062726960008201527f6467652063616e20747269676765722074686973206d6574686f642100000000602082015250565b7f45524332303a2064656372656173656420616c6c6f77616e63652062656c6f7760008201527f207a65726f000000000000000000000000000000000000000000000000000000602082015250565b7f45524332303a206d696e7420746f20746865207a65726f206164647265737300600082015250565b611c7d81611832565b8114611c8857600080fd5b50565b611c9481611870565b8114611c9f57600080fd5b5056fea2646970667358221220d3bd3b5deb77b8946daae572d79bbaeef48b3d3e7e8f714ccaf697ffc04523e664736f6c63430008040033",
  "linkReferences": {},
  "deployedLinkReferences": {}
}