{
  "_format": "hh-sol-artifact-1",
  "contractName": "tFren",
  "sourceName": "contracts/DestinationToken:tFren.sol",
  "abi": [
    {
      "inputs": [
        {
          "internalType": "address",
          "name": "_bridge",
          "type": "address"
        }
      ],
      "stateMutability": "nonpayable",
      "type": "constructor"
    },
    {
      "anonymous": false,
      "inputs": [
        {
          "indexed": true,
          "internalType": "address",
          "name": "owner",
          "type": "address"
        },
        {
          "indexed": true,
          "internalType": "address",
          "name": "spender",
          "type": "address"
        },
        {
          "indexed": false,
          "internalType": "uint256",
          "name": "value",
          "type": "uint256"
        }
      ],
      "name": "Approval",
      "type": "event"
    },
    {
      "anonymous": false,
      "inputs": [
        {
          "indexed": true,
          "internalType": "address",
          "name": "from",
          "type": "address"
        },
        {
          "indexed": true,
          "internalType": "address",
          "name": "to",
          "type": "address"
        },
        {
          "indexed": false,
          "internalType": "uint256",
          "name": "value",
          "type": "uint256"
        }
      ],
      "name": "Transfer",
      "type": "event"
    },
    {
      "inputs": [
        {
          "internalType": "address",
          "name": "owner",
          "type": "address"
        },
        {
          "internalType": "address",
          "name": "spender",
          "type": "address"
        }
      ],
      "name": "allowance",
      "outputs": [
        {
          "internalType": "uint256",
          "name": "",
          "type": "uint256"
        }
      ],
      "stateMutability": "view",
      "type": "function"
    },
    {
      "inputs": [
        {
          "internalType": "address",
          "name": "spender",
          "type": "address"
        },
        {
          "internalType": "uint256",
          "name": "amount",
          "type": "uint256"
        }
      ],
      "name": "approve",
      "outputs": [
        {
          "internalType": "bool",
          "name": "",
          "type": "bool"
        }
      ],
      "stateMutability": "nonpayable",
      "type": "function"
    },
    {
      "inputs": [
        {
          "internalType": "address",
          "name": "account",
          "type": "address"
        }
      ],
      "name": "balanceOf",
      "outputs": [
        {
          "internalType": "uint256",
          "name": "",
          "type": "uint256"
        }
      ],
      "stateMutability": "view",
      "type": "function"
    },
    {
      "inputs": [
        {
          "internalType": "uint256",
          "name": "amount",
          "type": "uint256"
        }
      ],
      "name": "burn",
      "outputs": [],
      "stateMutability": "nonpayable",
      "type": "function"
    },
    {
      "inputs": [
        {
          "internalType": "address",
          "name": "_account",
          "type": "address"
        },
        {
          "internalType": "uint256",
          "name": "_amount",
          "type": "uint256"
        }
      ],
      "name": "burnFrom",
      "outputs": [],
      "stateMutability": "nonpayable",
      "type": "function"
    },
    {
      "inputs": [],
      "name": "decimals",
      "outputs": [
        {
          "internalType": "uint8",
          "name": "",
          "type": "uint8"
        }
      ],
      "stateMutability": "view",
      "type": "function"
    },
    {
      "inputs": [
        {
          "internalType": "address",
          "name": "spender",
          "type": "address"
        },
        {
          "internalType": "uint256",
          "name": "subtractedValue",
          "type": "uint256"
        }
      ],
      "name": "decreaseAllowance",
      "outputs": [
        {
          "internalType": "bool",
          "name": "",
          "type": "bool"
        }
      ],
      "stateMutability": "nonpayable",
      "type": "function"
    },
    {
      "inputs": [
        {
          "internalType": "address",
          "name": "spender",
          "type": "address"
        },
        {
          "internalType": "uint256",
          "name": "addedValue",
          "type": "uint256"
        }
      ],
      "name": "increaseAllowance",
      "outputs": [
        {
          "internalType": "bool",
          "name": "",
          "type": "bool"
        }
      ],
      "stateMutability": "nonpayable",
      "type": "function"
    },
    {
      "inputs": [
        {
          "internalType": "address",
          "name": "_recipient",
          "type": "address"
        },
        {
          "internalType": "uint256",
          "name": "_amount",
          "type": "uint256"
        }
      ],
      "name": "mint",
      "outputs": [],
      "stateMutability": "nonpayable",
      "type": "function"
    },
    {
      "inputs": [],
      "name": "name",
      "outputs": [
        {
          "internalType": "string",
          "name": "",
          "type": "string"
        }
      ],
      "stateMutability": "view",
      "type": "function"
    },
    {
      "inputs": [],
      "name": "symbol",
      "outputs": [
        {
          "internalType": "string",
          "name": "",
          "type": "string"
        }
      ],
      "stateMutability": "view",
      "type": "function"
    },
    {
      "inputs": [],
      "name": "totalSupply",
      "outputs": [
        {
          "internalType": "uint256",
          "name": "",
          "type": "uint256"
        }
      ],
      "stateMutability": "view",
      "type": "function"
    },
    {
      "inputs": [
        {
          "internalType": "address",
          "name": "to",
          "type": "address"
        },
        {
          "internalType": "uint256",
          "name": "amount",
          "type": "uint256"
        }
      ],
      "name": "transfer",
      "outputs": [
        {
          "internalType": "bool",
          "name": "",
          "type": "bool"
        }
      ],
      "stateMutability": "nonpayable",
      "type": "function"
    },
    {
      "inputs": [
        {
          "internalType": "address",
          "name": "from",
          "type": "address"
        },
        {
          "internalType": "address",
          "name": "to",
          "type": "address"
        },
        {
          "internalType": "uint256",
          "name": "amount",
          "type": "uint256"
        }
      ],
      "name": "transferFrom",
      "outputs": [
        {
          "internalType": "bool",
          "name": "",
          "type": "bool"
        }
      ],
      "stateMutability": "nonpayable",
      "type": "function"
    }
  ],
  "bytecode": "0x60806040523480156200001157600080fd5b5060405162001f4b38038062001f4b8339818101604052810190620000379190620001e6565b6040518060400160405280600581526020017f744672656e0000000000000000000000000000000000000000000000000000008152506040518060400160405280600581526020017f744672656e0000000000000000000000000000000000000000000000000000008152508160039080519060200190620000bb9291906200011f565b508060049080519060200190620000d49291906200011f565b50505080600560006101000a81548173ffffffffffffffffffffffffffffffffffffffff021916908373ffffffffffffffffffffffffffffffffffffffff16021790555050620002c5565b8280546200012d9062000246565b90600052602060002090601f0160209004810192826200015157600085556200019d565b82601f106200016c57805160ff19168380011785556200019d565b828001600101855582156200019d579182015b828111156200019c5782518255916020019190600101906200017f565b5b509050620001ac9190620001b0565b5090565b5b80821115620001cb576000816000905550600101620001b1565b5090565b600081519050620001e081620002ab565b92915050565b600060208284031215620001f957600080fd5b60006200020984828501620001cf565b91505092915050565b60006200021f8262000226565b9050919050565b600073ffffffffffffffffffffffffffffffffffffffff82169050919050565b600060028204905060018216806200025f57607f821691505b602082108114156200027657620002756200027c565b5b50919050565b7f4e487b7100000000000000000000000000000000000000000000000000000000600052602260045260246000fd5b620002b68162000212565b8114620002c257600080fd5b50565b611c7680620002d56000396000f3fe608060405234801561001057600080fd5b50600436106100ea5760003560e01c806342966c681161008c57806395d89b411161006657806395d89b411461025d578063a457c2d71461027b578063a9059cbb146102ab578063dd62ed3e146102db576100ea565b806342966c68146101f557806370a082311461021157806379cc679014610241576100ea565b806323b872dd116100c857806323b872dd1461015b578063313ce5671461018b57806339509351146101a957806340c10f19146101d9576100ea565b806306fdde03146100ef578063095ea7b31461010d57806318160ddd1461013d575b600080fd5b6100f761030b565b6040516101049190611542565b60405180910390f35b610127600480360381019061012291906112cc565b61039d565b6040516101349190611527565b60405180910390f35b6101456103c0565b60405161015291906116f4565b60405180910390f35b6101756004803603810190610170919061127d565b6103ca565b6040516101829190611527565b60405180910390f35b6101936103f9565b6040516101a0919061170f565b60405180910390f35b6101c360048036038101906101be91906112cc565b610402565b6040516101d09190611527565b60405180910390f35b6101f360048036038101906101ee91906112cc565b6104ac565b005b61020f600480360381019061020a9190611308565b610589565b005b61022b60048036038101906102269190611218565b61059d565b60405161023891906116f4565b60405180910390f35b61025b600480360381019061025691906112cc565b6105e5565b005b6102656106c2565b6040516102729190611542565b60405180910390f35b610295600480360381019061029091906112cc565b610754565b6040516102a29190611527565b60405180910390f35b6102c560048036038101906102c091906112cc565b61083e565b6040516102d29190611527565b60405180910390f35b6102f560048036038101906102f09190611241565b610861565b60405161030291906116f4565b60405180910390f35b60606003805461031a90611858565b80601f016020809104026020016040519081016040528092919081815260200182805461034690611858565b80156103935780601f1061036857610100808354040283529160200191610393565b820191906000526020600020905b81548152906001019060200180831161037657829003601f168201915b5050505050905090565b6000806103a86108e8565b90506103b58185856108f0565b600191505092915050565b6000600254905090565b6000806103d56108e8565b90506103e2858285610abb565b6103ed858585610b47565b60019150509392505050565b60006012905090565b60008061040d6108e8565b90506104a1818585600160008673ffffffffffffffffffffffffffffffffffffffff1673ffffffffffffffffffffffffffffffffffffffff16815260200190815260200160002060008973ffffffffffffffffffffffffffffffffffffffff1673ffffffffffffffffffffffffffffffffffffffff1681526020019081526020016000205461049c9190611746565b6108f0565b600191505092915050565b3373ffffffffffffffffffffffffffffffffffffffff16600560009054906101000a900473ffffffffffffffffffffffffffffffffffffffff1673ffffffffffffffffffffffffffffffffffffffff161461053c576040517f08c379a000000000000000000000000000000000000000000000000000000000815260040161053390611594565b60405180910390fd5b6105468282610dc8565b6105856040518060400160405280601481526020017f546f6b656e73206d696e74656420666f7220257300000000000000000000000081525083610f28565b5050565b61059a6105946108e8565b82610fc4565b50565b60008060008373ffffffffffffffffffffffffffffffffffffffff1673ffffffffffffffffffffffffffffffffffffffff168152602001908152602001600020549050919050565b3373ffffffffffffffffffffffffffffffffffffffff16600560009054906101000a900473ffffffffffffffffffffffffffffffffffffffff1673ffffffffffffffffffffffffffffffffffffffff1614610675576040517f08c379a000000000000000000000000000000000000000000000000000000000815260040161066c90611594565b60405180910390fd5b61067f828261119b565b6106be6040518060400160405280601581526020017f546f6b656e73206275726e65642066726f6d202573000000000000000000000081525083610f28565b5050565b6060600480546106d190611858565b80601f01602080910402602001604051908101604052809291908181526020018280546106fd90611858565b801561074a5780601f1061071f5761010080835404028352916020019161074a565b820191906000526020600020905b81548152906001019060200180831161072d57829003601f168201915b5050505050905090565b60008061075f6108e8565b90506000600160008373ffffffffffffffffffffffffffffffffffffffff1673ffffffffffffffffffffffffffffffffffffffff16815260200190815260200160002060008673ffffffffffffffffffffffffffffffffffffffff1673ffffffffffffffffffffffffffffffffffffffff16815260200190815260200160002054905083811015610825576040517f08c379a000000000000000000000000000000000000000000000000000000000815260040161081c906116b4565b60405180910390fd5b61083282868684036108f0565b60019250505092915050565b6000806108496108e8565b9050610856818585610b47565b600191505092915050565b6000600160008473ffffffffffffffffffffffffffffffffffffffff1673ffffffffffffffffffffffffffffffffffffffff16815260200190815260200160002060008373ffffffffffffffffffffffffffffffffffffffff1673ffffffffffffffffffffffffffffffffffffffff16815260200190815260200160002054905092915050565b600033905090565b600073ffffffffffffffffffffffffffffffffffffffff168373ffffffffffffffffffffffffffffffffffffffff161415610960576040517f08c379a000000000000000000000000000000000000000000000000000000000815260040161095790611694565b60405180910390fd5b600073ffffffffffffffffffffffffffffffffffffffff168273ffffffffffffffffffffffffffffffffffffffff1614156109d0576040517f08c379a00000000000000000000000000000000000000000000000000000000081526004016109c7906115f4565b60405180910390fd5b80600160008573ffffffffffffffffffffffffffffffffffffffff1673ffffffffffffffffffffffffffffffffffffffff16815260200190815260200160002060008473ffffffffffffffffffffffffffffffffffffffff1673ffffffffffffffffffffffffffffffffffffffff168152602001908152602001600020819055508173ffffffffffffffffffffffffffffffffffffffff168373ffffffffffffffffffffffffffffffffffffffff167f8c5be1e5ebec7d5bd14f71427d1e84f3dd0314c0f7b2291e5b200ac8c7c3b92583604051610aae91906116f4565b60405180910390a3505050565b6000610ac78484610861565b90507fffffffffffffffffffffffffffffffffffffffffffffffffffffffffffffffff8114610b415781811015610b33576040517f08c379a0000000000000000000000000000000000000000000000000000000008152600401610b2a90611614565b60405180910390fd5b610b4084848484036108f0565b5b50505050565b600073ffffffffffffffffffffffffffffffffffffffff168373ffffffffffffffffffffffffffffffffffffffff161415610bb7576040517f08c379a0000000000000000000000000000000000000000000000000000000008152600401610bae90611674565b60405180910390fd5b600073ffffffffffffffffffffffffffffffffffffffff168273ffffffffffffffffffffffffffffffffffffffff161415610c27576040517f08c379a0000000000000000000000000000000000000000000000000000000008152600401610c1e906115b4565b60405180910390fd5b610c328383836111bb565b60008060008573ffffffffffffffffffffffffffffffffffffffff1673ffffffffffffffffffffffffffffffffffffffff16815260200190815260200160002054905081811015610cb8576040517f08c379a0000000000000000000000000000000000000000000000000000000008152600401610caf90611634565b60405180910390fd5b8181036000808673ffffffffffffffffffffffffffffffffffffffff1673ffffffffffffffffffffffffffffffffffffffff16815260200190815260200160002081905550816000808573ffffffffffffffffffffffffffffffffffffffff1673ffffffffffffffffffffffffffffffffffffffff1681526020019081526020016000206000828254610d4b9190611746565b925050819055508273ffffffffffffffffffffffffffffffffffffffff168473ffffffffffffffffffffffffffffffffffffffff167fddf252ad1be2c89b69c2b068fc378daa952ba7f163c4a11628f55a4df523b3ef84604051610daf91906116f4565b60405180910390a3610dc28484846111c0565b50505050565b600073ffffffffffffffffffffffffffffffffffffffff168273ffffffffffffffffffffffffffffffffffffffff161415610e38576040517f08c379a0000000000000000000000000000000000000000000000000000000008152600401610e2f906116d4565b60405180910390fd5b610e44600083836111bb565b8060026000828254610e569190611746565b92505081905550806000808473ffffffffffffffffffffffffffffffffffffffff1673ffffffffffffffffffffffffffffffffffffffff1681526020019081526020016000206000828254610eab9190611746565b925050819055508173ffffffffffffffffffffffffffffffffffffffff16600073ffffffffffffffffffffffffffffffffffffffff167fddf252ad1be2c89b69c2b068fc378daa952ba7f163c4a11628f55a4df523b3ef83604051610f1091906116f4565b60405180910390a3610f24600083836111c0565b5050565b610fc08282604051602401610f3e929190611564565b6040516020818303038152906040527f319af333000000000000000000000000000000000000000000000000000000007bffffffffffffffffffffffffffffffffffffffffffffffffffffffff19166020820180517bffffffffffffffffffffffffffffffffffffffffffffffffffffffff83818316178352505050506111c5565b5050565b600073ffffffffffffffffffffffffffffffffffffffff168273ffffffffffffffffffffffffffffffffffffffff161415611034576040517f08c379a000000000000000000000000000000000000000000000000000000000815260040161102b90611654565b60405180910390fd5b611040826000836111bb565b60008060008473ffffffffffffffffffffffffffffffffffffffff1673ffffffffffffffffffffffffffffffffffffffff168152602001908152602001600020549050818110156110c6576040517f08c379a00000000000000000000000000000000000000000000000000000000081526004016110bd906115d4565b60405180910390fd5b8181036000808573ffffffffffffffffffffffffffffffffffffffff1673ffffffffffffffffffffffffffffffffffffffff16815260200190815260200160002081905550816002600082825461111d919061179c565b92505081905550600073ffffffffffffffffffffffffffffffffffffffff168373ffffffffffffffffffffffffffffffffffffffff167fddf252ad1be2c89b69c2b068fc378daa952ba7f163c4a11628f55a4df523b3ef8460405161118291906116f4565b60405180910390a3611196836000846111c0565b505050565b6111ad826111a76108e8565b83610abb565b6111b78282610fc4565b5050565b505050565b505050565b60008151905060006a636f6e736f6c652e6c6f679050602083016000808483855afa5050505050565b6000813590506111fd81611c12565b92915050565b60008135905061121281611c29565b92915050565b60006020828403121561122a57600080fd5b6000611238848285016111ee565b91505092915050565b6000806040838503121561125457600080fd5b6000611262858286016111ee565b9250506020611273858286016111ee565b9150509250929050565b60008060006060848603121561129257600080fd5b60006112a0868287016111ee565b93505060206112b1868287016111ee565b92505060406112c286828701611203565b9150509250925092565b600080604083850312156112df57600080fd5b60006112ed858286016111ee565b92505060206112fe85828601611203565b9150509250929050565b60006020828403121561131a57600080fd5b600061132884828501611203565b91505092915050565b61133a816117d0565b82525050565b611349816117e2565b82525050565b600061135a8261172a565b6113648185611735565b9350611374818560208601611825565b61137d816118e8565b840191505092915050565b6000611395602f83611735565b91506113a0826118f9565b604082019050919050565b60006113b8602383611735565b91506113c382611948565b604082019050919050565b60006113db602283611735565b91506113e682611997565b604082019050919050565b60006113fe602283611735565b9150611409826119e6565b604082019050919050565b6000611421601d83611735565b915061142c82611a35565b602082019050919050565b6000611444602683611735565b915061144f82611a5e565b604082019050919050565b6000611467602183611735565b915061147282611aad565b604082019050919050565b600061148a602583611735565b915061149582611afc565b604082019050919050565b60006114ad602483611735565b91506114b882611b4b565b604082019050919050565b60006114d0602583611735565b91506114db82611b9a565b604082019050919050565b60006114f3601f83611735565b91506114fe82611be9565b602082019050919050565b6115128161180e565b82525050565b61152181611818565b82525050565b600060208201905061153c6000830184611340565b92915050565b6000602082019050818103600083015261155c818461134f565b905092915050565b6000604082019050818103600083015261157e818561134f565b905061158d6020830184611331565b9392505050565b600060208201905081810360008301526115ad81611388565b9050919050565b600060208201905081810360008301526115cd816113ab565b9050919050565b600060208201905081810360008301526115ed816113ce565b9050919050565b6000602082019050818103600083015261160d816113f1565b9050919050565b6000602082019050818103600083015261162d81611414565b9050919050565b6000602082019050818103600083015261164d81611437565b9050919050565b6000602082019050818103600083015261166d8161145a565b9050919050565b6000602082019050818103600083015261168d8161147d565b9050919050565b600060208201905081810360008301526116ad816114a0565b9050919050565b600060208201905081810360008301526116cd816114c3565b9050919050565b600060208201905081810360008301526116ed816114e6565b9050919050565b60006020820190506117096000830184611509565b92915050565b60006020820190506117246000830184611518565b92915050565b600081519050919050565b600082825260208201905092915050565b60006117518261180e565b915061175c8361180e565b9250827fffffffffffffffffffffffffffffffffffffffffffffffffffffffffffffffff038211156117915761179061188a565b5b828201905092915050565b60006117a78261180e565b91506117b28361180e565b9250828210156117c5576117c461188a565b5b828203905092915050565b60006117db826117ee565b9050919050565b60008115159050919050565b600073ffffffffffffffffffffffffffffffffffffffff82169050919050565b6000819050919050565b600060ff82169050919050565b60005b83811015611843578082015181840152602081019050611828565b83811115611852576000848401525b50505050565b6000600282049050600182168061187057607f821691505b60208210811415611884576118836118b9565b5b50919050565b7f4e487b7100000000000000000000000000000000000000000000000000000000600052601160045260246000fd5b7f4e487b7100000000000000000000000000000000000000000000000000000000600052602260045260246000fd5b6000601f19601f8301169050919050565b7f744672656e3a206f6e6c7920746865206272696467652063616e20747269676760008201527f65722074686973206d6574686f64210000000000000000000000000000000000602082015250565b7f45524332303a207472616e7366657220746f20746865207a65726f206164647260008201527f6573730000000000000000000000000000000000000000000000000000000000602082015250565b7f45524332303a206275726e20616d6f756e7420657863656564732062616c616e60008201527f6365000000000000000000000000000000000000000000000000000000000000602082015250565b7f45524332303a20617070726f766520746f20746865207a65726f20616464726560008201527f7373000000000000000000000000000000000000000000000000000000000000602082015250565b7f45524332303a20696e73756666696369656e7420616c6c6f77616e6365000000600082015250565b7f45524332303a207472616e7366657220616d6f756e742065786365656473206260008201527f616c616e63650000000000000000000000000000000000000000000000000000602082015250565b7f45524332303a206275726e2066726f6d20746865207a65726f2061646472657360008201527f7300000000000000000000000000000000000000000000000000000000000000602082015250565b7f45524332303a207472616e736665722066726f6d20746865207a65726f20616460008201527f6472657373000000000000000000000000000000000000000000000000000000602082015250565b7f45524332303a20617070726f76652066726f6d20746865207a65726f2061646460008201527f7265737300000000000000000000000000000000000000000000000000000000602082015250565b7f45524332303a2064656372656173656420616c6c6f77616e63652062656c6f7760008201527f207a65726f000000000000000000000000000000000000000000000000000000602082015250565b7f45524332303a206d696e7420746f20746865207a65726f206164647265737300600082015250565b611c1b816117d0565b8114611c2657600080fd5b50565b611c328161180e565b8114611c3d57600080fd5b5056fea2646970667358221220382f8a7c9e0efda73dc1c9931a1947ca55f578b636e07cc6f840bfe76d8be47d64736f6c63430008040033",
  "linkReferences": {},
  "deployedLinkReferences": {}
}