{
  "_format": "hh-sol-artifact-1",
  "contractName": "ChainstackDollars",
  "sourceName": "contracts/OriginToken.sol",
  "abi": [
    {
      "inputs": [
        {
          "internalType": "string",
          "name": "_name",
          "type": "string"
        },
        {
          "internalType": "string",
          "name": "_symbol",
          "type": "string"
        },
        {
          "internalType": "uint256",
          "name": "_initialSupply",
          "type": "uint256"
        }
      ],
      "stateMutability": "nonpayable",
      "type": "constructor"
    },
    {
      "anonymous": false,
      "inputs": [
        {
          "indexed": true,
          "internalType": "address",
          "name": "owner",
          "type": "address"
        },
        {
          "indexed": true,
          "internalType": "address",
          "name": "spender",
          "type": "address"
        },
        {
          "indexed": false,
          "internalType": "uint256",
          "name": "value",
          "type": "uint256"
        }
      ],
      "name": "Approval",
      "type": "event"
    },
    {
      "anonymous": false,
      "inputs": [
        {
          "indexed": true,
          "internalType": "address",
          "name": "from",
          "type": "address"
        },
        {
          "indexed": true,
          "internalType": "address",
          "name": "to",
          "type": "address"
        },
        {
          "indexed": false,
          "internalType": "uint256",
          "name": "value",
          "type": "uint256"
        }
      ],
      "name": "Transfer",
      "type": "event"
    },
    {
      "inputs": [
        {
          "internalType": "address",
          "name": "owner",
          "type": "address"
        },
        {
          "internalType": "address",
          "name": "spender",
          "type": "address"
        }
      ],
      "name": "allowance",
      "outputs": [
        {
          "internalType": "uint256",
          "name": "",
          "type": "uint256"
        }
      ],
      "stateMutability": "view",
      "type": "function"
    },
    {
      "inputs": [
        {
          "internalType": "address",
          "name": "spender",
          "type": "address"
        },
        {
          "internalType": "uint256",
          "name": "amount",
          "type": "uint256"
        }
      ],
      "name": "approve",
      "outputs": [
        {
          "internalType": "bool",
          "name": "",
          "type": "bool"
        }
      ],
      "stateMutability": "nonpayable",
      "type": "function"
    },
    {
      "inputs": [
        {
          "internalType": "address",
          "name": "account",
          "type": "address"
        }
      ],
      "name": "balanceOf",
      "outputs": [
        {
          "internalType": "uint256",
          "name": "",
          "type": "uint256"
        }
      ],
      "stateMutability": "view",
      "type": "function"
    },
    {
      "inputs": [],
      "name": "decimals",
      "outputs": [
        {
          "internalType": "uint8",
          "name": "",
          "type": "uint8"
        }
      ],
      "stateMutability": "view",
      "type": "function"
    },
    {
      "inputs": [
        {
          "internalType": "address",
          "name": "spender",
          "type": "address"
        },
        {
          "internalType": "uint256",
          "name": "subtractedValue",
          "type": "uint256"
        }
      ],
      "name": "decreaseAllowance",
      "outputs": [
        {
          "internalType": "bool",
          "name": "",
          "type": "bool"
        }
      ],
      "stateMutability": "nonpayable",
      "type": "function"
    },
    {
      "inputs": [
        {
          "internalType": "address",
          "name": "spender",
          "type": "address"
        },
        {
          "internalType": "uint256",
          "name": "addedValue",
          "type": "uint256"
        }
      ],
      "name": "increaseAllowance",
      "outputs": [
        {
          "internalType": "bool",
          "name": "",
          "type": "bool"
        }
      ],
      "stateMutability": "nonpayable",
      "type": "function"
    },
    {
      "inputs": [],
      "name": "name",
      "outputs": [
        {
          "internalType": "string",
          "name": "",
          "type": "string"
        }
      ],
      "stateMutability": "view",
      "type": "function"
    },
    {
      "inputs": [],
      "name": "symbol",
      "outputs": [
        {
          "internalType": "string",
          "name": "",
          "type": "string"
        }
      ],
      "stateMutability": "view",
      "type": "function"
    },
    {
      "inputs": [],
      "name": "totalSupply",
      "outputs": [
        {
          "internalType": "uint256",
          "name": "",
          "type": "uint256"
        }
      ],
      "stateMutability": "view",
      "type": "function"
    },
    {
      "inputs": [
        {
          "internalType": "address",
          "name": "to",
          "type": "address"
        },
        {
          "internalType": "uint256",
          "name": "amount",
          "type": "uint256"
        }
      ],
      "name": "transfer",
      "outputs": [
        {
          "internalType": "bool",
          "name": "",
          "type": "bool"
        }
      ],
      "stateMutability": "nonpayable",
      "type": "function"
    },
    {
      "inputs": [
        {
          "internalType": "address",
          "name": "from",
          "type": "address"
        },
        {
          "internalType": "address",
          "name": "to",
          "type": "address"
        },
        {
          "internalType": "uint256",
          "name": "amount",
          "type": "uint256"
        }
      ],
      "name": "transferFrom",
      "outputs": [
        {
          "internalType": "bool",
          "name": "",
          "type": "bool"
        }
      ],
      "stateMutability": "nonpayable",
      "type": "function"
    }
  ],
  "bytecode": "0x60806040523480156200001157600080fd5b50604051620020de380380620020de83398181016040528101906200003791906200056d565b828281600390805190602001906200005192919062000434565b5080600490805190602001906200006a92919062000434565b5050506200009b336012600a62000082919062000859565b836200008f919062000996565b6200013c60201b60201c565b620000e76040518060400160405280601081526020017f546f6b656e73206d696e7465642025730000000000000000000000000000000081525082620002b560201b620006851760201c565b620001336040518060400160405280601b81526020017f4465706c6f7965642120546f6b656e732073656e7420746f2025730000000000815250336200035b60201b620007211760201c565b50505062000bc5565b600073ffffffffffffffffffffffffffffffffffffffff168273ffffffffffffffffffffffffffffffffffffffff161415620001af576040517f08c379a0000000000000000000000000000000000000000000000000000000008152600401620001a690620006e7565b60405180910390fd5b620001c3600083836200040160201b60201c565b8060026000828254620001d79190620007a1565b92505081905550806000808473ffffffffffffffffffffffffffffffffffffffff1673ffffffffffffffffffffffffffffffffffffffff16815260200190815260200160002060008282546200022e9190620007a1565b925050819055508173ffffffffffffffffffffffffffffffffffffffff16600073ffffffffffffffffffffffffffffffffffffffff167fddf252ad1be2c89b69c2b068fc378daa952ba7f163c4a11628f55a4df523b3ef8360405162000295919062000709565b60405180910390a3620002b1600083836200040660201b60201c565b5050565b620003578282604051602401620002ce929190620006b3565b6040516020818303038152906040527f9710a9d0000000000000000000000000000000000000000000000000000000007bffffffffffffffffffffffffffffffffffffffffffffffffffffffff19166020820180517bffffffffffffffffffffffffffffffffffffffffffffffffffffffff83818316178352505050506200040b60201b60201c565b5050565b620003fd8282604051602401620003749291906200067f565b6040516020818303038152906040527f319af333000000000000000000000000000000000000000000000000000000007bffffffffffffffffffffffffffffffffffffffffffffffffffffffff19166020820180517bffffffffffffffffffffffffffffffffffffffffffffffffffffffff83818316178352505050506200040b60201b60201c565b5050565b505050565b505050565b60008151905060006a636f6e736f6c652e6c6f679050602083016000808483855afa5050505050565b828054620004429062000a6b565b90600052602060002090601f016020900481019282620004665760008555620004b2565b82601f106200048157805160ff1916838001178555620004b2565b82800160010185558215620004b2579182015b82811115620004b157825182559160200191906001019062000494565b5b509050620004c19190620004c5565b5090565b5b80821115620004e0576000816000905550600101620004c6565b5090565b6000620004fb620004f5846200074f565b62000726565b9050828152602081018484840111156200051457600080fd5b6200052184828562000a35565b509392505050565b600082601f8301126200053b57600080fd5b81516200054d848260208601620004e4565b91505092915050565b600081519050620005678162000bab565b92915050565b6000806000606084860312156200058357600080fd5b600084015167ffffffffffffffff8111156200059e57600080fd5b620005ac8682870162000529565b935050602084015167ffffffffffffffff811115620005ca57600080fd5b620005d88682870162000529565b9250506040620005eb8682870162000556565b9150509250925092565b6200060081620009f7565b82525050565b6000620006138262000785565b6200061f818562000790565b93506200063181856020860162000a35565b6200063c8162000b64565b840191505092915050565b600062000656601f8362000790565b9150620006638262000b82565b602082019050919050565b620006798162000a2b565b82525050565b600060408201905081810360008301526200069b818562000606565b9050620006ac6020830184620005f5565b9392505050565b60006040820190508181036000830152620006cf818562000606565b9050620006e060208301846200066e565b9392505050565b60006020820190508181036000830152620007028162000647565b9050919050565b60006020820190506200072060008301846200066e565b92915050565b60006200073262000745565b905062000740828262000aa1565b919050565b6000604051905090565b600067ffffffffffffffff8211156200076d576200076c62000b35565b5b620007788262000b64565b9050602081019050919050565b600081519050919050565b600082825260208201905092915050565b6000620007ae8262000a2b565b9150620007bb8362000a2b565b9250827fffffffffffffffffffffffffffffffffffffffffffffffffffffffffffffffff03821115620007f357620007f262000ad7565b5b828201905092915050565b6000808291508390505b6001851115620008505780860481111562000828576200082762000ad7565b5b6001851615620008385780820291505b8081029050620008488562000b75565b945062000808565b94509492505050565b6000620008668262000a2b565b9150620008738362000a2b565b9250620008a27fffffffffffffffffffffffffffffffffffffffffffffffffffffffffffffffff8484620008aa565b905092915050565b600082620008bc57600190506200098f565b81620008cc57600090506200098f565b8160018114620008e55760028114620008f05762000926565b60019150506200098f565b60ff84111562000905576200090462000ad7565b5b8360020a9150848211156200091f576200091e62000ad7565b5b506200098f565b5060208310610133831016604e8410600b8410161715620009605782820a9050838111156200095a576200095962000ad7565b5b6200098f565b6200096f8484846001620007fe565b9250905081840481111562000989576200098862000ad7565b5b81810290505b9392505050565b6000620009a38262000a2b565b9150620009b08362000a2b565b9250817fffffffffffffffffffffffffffffffffffffffffffffffffffffffffffffffff0483118215151615620009ec57620009eb62000ad7565b5b828202905092915050565b600062000a048262000a0b565b9050919050565b600073ffffffffffffffffffffffffffffffffffffffff82169050919050565b6000819050919050565b60005b8381101562000a5557808201518184015260208101905062000a38565b8381111562000a65576000848401525b50505050565b6000600282049050600182168062000a8457607f821691505b6020821081141562000a9b5762000a9a62000b06565b5b50919050565b62000aac8262000b64565b810181811067ffffffffffffffff8211171562000ace5762000acd62000b35565b5b80604052505050565b7f4e487b7100000000000000000000000000000000000000000000000000000000600052601160045260246000fd5b7f4e487b7100000000000000000000000000000000000000000000000000000000600052602260045260246000fd5b7f4e487b7100000000000000000000000000000000000000000000000000000000600052604160045260246000fd5b6000601f19601f8301169050919050565b60008160011c9050919050565b7f45524332303a206d696e7420746f20746865207a65726f206164647265737300600082015250565b62000bb68162000a2b565b811462000bc257600080fd5b50565b6115098062000bd56000396000f3fe608060405234801561001057600080fd5b50600436106100a95760003560e01c80633950935111610071578063395093511461016857806370a082311461019857806395d89b41146101c8578063a457c2d7146101e6578063a9059cbb14610216578063dd62ed3e14610246576100a9565b806306fdde03146100ae578063095ea7b3146100cc57806318160ddd146100fc57806323b872dd1461011a578063313ce5671461014a575b600080fd5b6100b6610276565b6040516100c39190610f6f565b60405180910390f35b6100e660048036038101906100e19190610dae565b610308565b6040516100f39190610f54565b60405180910390f35b61010461032b565b60405161011191906110d1565b60405180910390f35b610134600480360381019061012f9190610d5f565b610335565b6040516101419190610f54565b60405180910390f35b610152610364565b60405161015f91906110ec565b60405180910390f35b610182600480360381019061017d9190610dae565b61036d565b60405161018f9190610f54565b60405180910390f35b6101b260048036038101906101ad9190610cfa565b610417565b6040516101bf91906110d1565b60405180910390f35b6101d061045f565b6040516101dd9190610f6f565b60405180910390f35b61020060048036038101906101fb9190610dae565b6104f1565b60405161020d9190610f54565b60405180910390f35b610230600480360381019061022b9190610dae565b6105db565b60405161023d9190610f54565b60405180910390f35b610260600480360381019061025b9190610d23565b6105fe565b60405161026d91906110d1565b60405180910390f35b60606003805461028590611201565b80601f01602080910402602001604051908101604052809291908181526020018280546102b190611201565b80156102fe5780601f106102d3576101008083540402835291602001916102fe565b820191906000526020600020905b8154815290600101906020018083116102e157829003601f168201915b5050505050905090565b6000806103136107bd565b90506103208185856107c5565b600191505092915050565b6000600254905090565b6000806103406107bd565b905061034d858285610990565b610358858585610a1c565b60019150509392505050565b60006012905090565b6000806103786107bd565b905061040c818585600160008673ffffffffffffffffffffffffffffffffffffffff1673ffffffffffffffffffffffffffffffffffffffff16815260200190815260200160002060008973ffffffffffffffffffffffffffffffffffffffff1673ffffffffffffffffffffffffffffffffffffffff168152602001908152602001600020546104079190611123565b6107c5565b600191505092915050565b60008060008373ffffffffffffffffffffffffffffffffffffffff1673ffffffffffffffffffffffffffffffffffffffff168152602001908152602001600020549050919050565b60606004805461046e90611201565b80601f016020809104026020016040519081016040528092919081815260200182805461049a90611201565b80156104e75780601f106104bc576101008083540402835291602001916104e7565b820191906000526020600020905b8154815290600101906020018083116104ca57829003601f168201915b5050505050905090565b6000806104fc6107bd565b90506000600160008373ffffffffffffffffffffffffffffffffffffffff1673ffffffffffffffffffffffffffffffffffffffff16815260200190815260200160002060008673ffffffffffffffffffffffffffffffffffffffff1673ffffffffffffffffffffffffffffffffffffffff168152602001908152602001600020549050838110156105c2576040517f08c379a00000000000000000000000000000000000000000000000000000000081526004016105b9906110b1565b60405180910390fd5b6105cf82868684036107c5565b60019250505092915050565b6000806105e66107bd565b90506105f3818585610a1c565b600191505092915050565b6000600160008473ffffffffffffffffffffffffffffffffffffffff1673ffffffffffffffffffffffffffffffffffffffff16815260200190815260200160002060008373ffffffffffffffffffffffffffffffffffffffff1673ffffffffffffffffffffffffffffffffffffffff16815260200190815260200160002054905092915050565b61071d828260405160240161069b929190610fc1565b6040516020818303038152906040527f9710a9d0000000000000000000000000000000000000000000000000000000007bffffffffffffffffffffffffffffffffffffffffffffffffffffffff19166020820180517bffffffffffffffffffffffffffffffffffffffffffffffffffffffff8381831617835250505050610c9d565b5050565b6107b98282604051602401610737929190610f91565b6040516020818303038152906040527f319af333000000000000000000000000000000000000000000000000000000007bffffffffffffffffffffffffffffffffffffffffffffffffffffffff19166020820180517bffffffffffffffffffffffffffffffffffffffffffffffffffffffff8381831617835250505050610c9d565b5050565b600033905090565b600073ffffffffffffffffffffffffffffffffffffffff168373ffffffffffffffffffffffffffffffffffffffff161415610835576040517f08c379a000000000000000000000000000000000000000000000000000000000815260040161082c90611091565b60405180910390fd5b600073ffffffffffffffffffffffffffffffffffffffff168273ffffffffffffffffffffffffffffffffffffffff1614156108a5576040517f08c379a000000000000000000000000000000000000000000000000000000000815260040161089c90611011565b60405180910390fd5b80600160008573ffffffffffffffffffffffffffffffffffffffff1673ffffffffffffffffffffffffffffffffffffffff16815260200190815260200160002060008473ffffffffffffffffffffffffffffffffffffffff1673ffffffffffffffffffffffffffffffffffffffff168152602001908152602001600020819055508173ffffffffffffffffffffffffffffffffffffffff168373ffffffffffffffffffffffffffffffffffffffff167f8c5be1e5ebec7d5bd14f71427d1e84f3dd0314c0f7b2291e5b200ac8c7c3b9258360405161098391906110d1565b60405180910390a3505050565b600061099c84846105fe565b90507fffffffffffffffffffffffffffffffffffffffffffffffffffffffffffffffff8114610a165781811015610a08576040517f08c379a00000000000000000000000000000000000000000000000000000000081526004016109ff90611031565b60405180910390fd5b610a1584848484036107c5565b5b50505050565b600073ffffffffffffffffffffffffffffffffffffffff168373ffffffffffffffffffffffffffffffffffffffff161415610a8c576040517f08c379a0000000000000000000000000000000000000000000000000000000008152600401610a8390611071565b60405180910390fd5b600073ffffffffffffffffffffffffffffffffffffffff168273ffffffffffffffffffffffffffffffffffffffff161415610afc576040517f08c379a0000000000000000000000000000000000000000000000000000000008152600401610af390610ff1565b60405180910390fd5b610b07838383610cc6565b60008060008573ffffffffffffffffffffffffffffffffffffffff1673ffffffffffffffffffffffffffffffffffffffff16815260200190815260200160002054905081811015610b8d576040517f08c379a0000000000000000000000000000000000000000000000000000000008152600401610b8490611051565b60405180910390fd5b8181036000808673ffffffffffffffffffffffffffffffffffffffff1673ffffffffffffffffffffffffffffffffffffffff16815260200190815260200160002081905550816000808573ffffffffffffffffffffffffffffffffffffffff1673ffffffffffffffffffffffffffffffffffffffff1681526020019081526020016000206000828254610c209190611123565b925050819055508273ffffffffffffffffffffffffffffffffffffffff168473ffffffffffffffffffffffffffffffffffffffff167fddf252ad1be2c89b69c2b068fc378daa952ba7f163c4a11628f55a4df523b3ef84604051610c8491906110d1565b60405180910390a3610c97848484610ccb565b50505050565b60008151905060006a636f6e736f6c652e6c6f679050602083016000808483855afa5050505050565b505050565b505050565b600081359050610cdf816114a5565b92915050565b600081359050610cf4816114bc565b92915050565b600060208284031215610d0c57600080fd5b6000610d1a84828501610cd0565b91505092915050565b60008060408385031215610d3657600080fd5b6000610d4485828601610cd0565b9250506020610d5585828601610cd0565b9150509250929050565b600080600060608486031215610d7457600080fd5b6000610d8286828701610cd0565b9350506020610d9386828701610cd0565b9250506040610da486828701610ce5565b9150509250925092565b60008060408385031215610dc157600080fd5b6000610dcf85828601610cd0565b9250506020610de085828601610ce5565b9150509250929050565b610df381611179565b82525050565b610e028161118b565b82525050565b6000610e1382611107565b610e1d8185611112565b9350610e2d8185602086016111ce565b610e3681611291565b840191505092915050565b6000610e4e602383611112565b9150610e59826112a2565b604082019050919050565b6000610e71602283611112565b9150610e7c826112f1565b604082019050919050565b6000610e94601d83611112565b9150610e9f82611340565b602082019050919050565b6000610eb7602683611112565b9150610ec282611369565b604082019050919050565b6000610eda602583611112565b9150610ee5826113b8565b604082019050919050565b6000610efd602483611112565b9150610f0882611407565b604082019050919050565b6000610f20602583611112565b9150610f2b82611456565b604082019050919050565b610f3f816111b7565b82525050565b610f4e816111c1565b82525050565b6000602082019050610f696000830184610df9565b92915050565b60006020820190508181036000830152610f898184610e08565b905092915050565b60006040820190508181036000830152610fab8185610e08565b9050610fba6020830184610dea565b9392505050565b60006040820190508181036000830152610fdb8185610e08565b9050610fea6020830184610f36565b9392505050565b6000602082019050818103600083015261100a81610e41565b9050919050565b6000602082019050818103600083015261102a81610e64565b9050919050565b6000602082019050818103600083015261104a81610e87565b9050919050565b6000602082019050818103600083015261106a81610eaa565b9050919050565b6000602082019050818103600083015261108a81610ecd565b9050919050565b600060208201905081810360008301526110aa81610ef0565b9050919050565b600060208201905081810360008301526110ca81610f13565b9050919050565b60006020820190506110e66000830184610f36565b92915050565b60006020820190506111016000830184610f45565b92915050565b600081519050919050565b600082825260208201905092915050565b600061112e826111b7565b9150611139836111b7565b9250827fffffffffffffffffffffffffffffffffffffffffffffffffffffffffffffffff0382111561116e5761116d611233565b5b828201905092915050565b600061118482611197565b9050919050565b60008115159050919050565b600073ffffffffffffffffffffffffffffffffffffffff82169050919050565b6000819050919050565b600060ff82169050919050565b60005b838110156111ec5780820151818401526020810190506111d1565b838111156111fb576000848401525b50505050565b6000600282049050600182168061121957607f821691505b6020821081141561122d5761122c611262565b5b50919050565b7f4e487b7100000000000000000000000000000000000000000000000000000000600052601160045260246000fd5b7f4e487b7100000000000000000000000000000000000000000000000000000000600052602260045260246000fd5b6000601f19601f8301169050919050565b7f45524332303a207472616e7366657220746f20746865207a65726f206164647260008201527f6573730000000000000000000000000000000000000000000000000000000000602082015250565b7f45524332303a20617070726f766520746f20746865207a65726f20616464726560008201527f7373000000000000000000000000000000000000000000000000000000000000602082015250565b7f45524332303a20696e73756666696369656e7420616c6c6f77616e6365000000600082015250565b7f45524332303a207472616e7366657220616d6f756e742065786365656473206260008201527f616c616e63650000000000000000000000000000000000000000000000000000602082015250565b7f45524332303a207472616e736665722066726f6d20746865207a65726f20616460008201527f6472657373000000000000000000000000000000000000000000000000000000602082015250565b7f45524332303a20617070726f76652066726f6d20746865207a65726f2061646460008201527f7265737300000000000000000000000000000000000000000000000000000000602082015250565b7f45524332303a2064656372656173656420616c6c6f77616e63652062656c6f7760008201527f207a65726f000000000000000000000000000000000000000000000000000000602082015250565b6114ae81611179565b81146114b957600080fd5b50565b6114c5816111b7565b81146114d057600080fd5b5056fea2646970667358221220d64f0f85ed813ab09f6725f12cc3cfe613bb2b8ca3670dd4fb5067053c4e07f064736f6c63430008040033",
  "linkReferences": {},
  "deployedLinkReferences": {}
}